{
  "contractName": "Ballot",
  "abi": [
    {
      "inputs": [
        {
          "internalType": "uint256",
          "name": "numProposals",
          "type": "uint256"
        }
      ],
      "payable": false,
      "stateMutability": "nonpayable",
      "type": "constructor"
    },
    {
      "constant": false,
      "inputs": [
        {
          "internalType": "address",
          "name": "voter",
          "type": "address"
        }
      ],
      "name": "register",
      "outputs": [],
      "payable": false,
      "stateMutability": "nonpayable",
      "type": "function"
    },
    {
      "constant": false,
      "inputs": [
        {
          "internalType": "uint256",
          "name": "toProposal",
          "type": "uint256"
        }
      ],
      "name": "vote",
      "outputs": [],
      "payable": false,
      "stateMutability": "nonpayable",
      "type": "function"
    },
    {
      "constant": true,
      "inputs": [],
      "name": "reqWinner",
      "outputs": [
        {
          "internalType": "uint256",
          "name": "winningProposal",
          "type": "uint256"
        }
      ],
      "payable": false,
      "stateMutability": "view",
      "type": "function"
    }
  ],
  "bytecode": "0x608060405234801561001057600080fd5b506040516105ab3803806105ab8339818101604052602081101561003357600080fd5b8101908080519060200190929190505050336000806101000a81548173ffffffffffffffffffffffffffffffffffffffff021916908373ffffffffffffffffffffffffffffffffffffffff1602179055506002600160008060009054906101000a900473ffffffffffffffffffffffffffffffffffffffff1673ffffffffffffffffffffffffffffffffffffffff1673ffffffffffffffffffffffffffffffffffffffff1681526020019081526020016000206000018190555060008090505b8181101561014e576002604051806020016040528060008152509080600181540180825580915050906001820390600052602060002001600090919290919091506000820151816000015550505080806001019150506100f3565b505061044c8061015f6000396000f3fe608060405234801561001057600080fd5b50600436106100415760003560e01c80630121b93f146100465780634420e48614610074578063508b30c9146100b8575b600080fd5b6100726004803603602081101561005c57600080fd5b81019080803590602001909291905050506100d6565b005b6100b66004803603602081101561008a57600080fd5b81019080803573ffffffffffffffffffffffffffffffffffffffff16906020019092919050505061027c565b005b6100c061037a565b6040518082815260200191505060405180910390f35b6000600160003373ffffffffffffffffffffffffffffffffffffffff1673ffffffffffffffffffffffffffffffffffffffff168152602001908152602001600020600001541161018e576040517f08c379a00000000000000000000000000000000000000000000000000000000081526004018080602001828103825260168152602001807f4e6f742061205265676973746572656420566f7465720000000000000000000081525060200191505060405180910390fd5b6101966103f4565b600160003373ffffffffffffffffffffffffffffffffffffffff1673ffffffffffffffffffffffffffffffffffffffff168152602001908152602001600020604051806060016040529081600082015481526020016001820160009054906101000a900460ff16151515158152602001600282015481525050905080602001511561022057600080fd5b600280549050821061023157600080fd5b60018160200190151590811515815250508181604001818152505080600001516002838154811061025e57fe5b90600052602060002001600001600082825401925050819055505050565b6000809054906101000a900473ffffffffffffffffffffffffffffffffffffffff1673ffffffffffffffffffffffffffffffffffffffff163373ffffffffffffffffffffffffffffffffffffffff16146102d557600080fd5b60018060008373ffffffffffffffffffffffffffffffffffffffff1673ffffffffffffffffffffffffffffffffffffffff168152602001908152602001600020600001819055506000600160008373ffffffffffffffffffffffffffffffffffffffff1673ffffffffffffffffffffffffffffffffffffffff16815260200190815260200160002060010160006101000a81548160ff02191690831515021790555050565b6000806000905060008090505b6002805490508110156103e45781600282815481106103a257fe5b906000526020600020016000015411156103d757600281815481106103c357fe5b906000526020600020016000015491508092505b8080600101915050610387565b5060038110156103f057fe5b5090565b60405180606001604052806000815260200160001515815260200160008152509056fea265627a7a7231582091ac86b52ca2d9be1f3b4a52d0209b8b43d037ef17c29c3877734ac86589de5a64736f6c63430005100032",
  "source": "pragma solidity >=0.4.22 <=0.6.0;\ncontract Ballot {\n    struct Voter {                     \n        uint weight;\n        bool voted;\n        uint vote;\n    }\n    struct Proposal {                  \n        uint voteCount;\n    }\n    address chairperson;\n    mapping(address => Voter) voters;  \n    Proposal[] proposals;\n    \n    //modifiers\n    modifier onlyChair() \n     {require(msg.sender == chairperson);\n      _;\n     } \n     modifier validVoter()\n    {\n        require(voters[msg.sender].weight > 0, \"Not a Registered Voter\");\n        _;\n    }\n\n    constructor (uint numProposals) public  {\n        chairperson = msg.sender;\n        voters[chairperson].weight = 2; // weight 2 for testing purposes\n        //proposals.length = numProposals; -- before 0.6.0\n        for (uint prop = 0; prop < numProposals; prop ++)\n            proposals.push(Proposal(0));\n        \n    }\n    function register(address voter) public  onlyChair {\n        \n        voters[voter].weight = 1;\n        voters[voter].voted = false;\n    }\n    function vote(uint toProposal) public  validVoter{\n      \n        Voter memory sender = voters[msg.sender];\n        \n        require (!sender.voted); \n        require (toProposal < proposals.length); \n        \n        sender.voted = true;\n        sender.vote = toProposal;   \n        proposals[toProposal].voteCount += sender.weight;\n    }\n    function reqWinner() public view returns (uint winningProposal) {  \n        uint winningVoteCount = 0;\n        for (uint prop = 0; prop < proposals.length; prop++) \n            if (proposals[prop].voteCount > winningVoteCount) {\n                winningVoteCount = proposals[prop].voteCount;\n                winningProposal = prop;\n            }\n       assert(winningVoteCount>=3);\n    }\n}\n",
  "sourcePath": "/Users/yebeen/Desktop/Blockchain/CHAPTER_4/Ballot-Dapp/ballot-contract/contracts/Ballot.sol",
  "compiler": {
    "name": "solc",
    "version": "0.5.16+commit.9c3226ce.Emscripten.clang"
  },
  "schemaVersion": "3.0.23",
  "updatedAt": "2022-05-11T14:16:24.697Z",
  "networkType": "ethereum",
  "devdoc": {
    "methods": {}
  },
  "userdoc": {
    "methods": {}
  }
}